{
  "_format": "hh-sol-artifact-1",
  "contractName": "BotPayment",
  "sourceName": "contracts/BotPayment.sol",
  "abi": [
    {
      "inputs": [
        {
          "internalType": "address",
          "name": "_moderator",
          "type": "address"
        }
      ],
      "stateMutability": "nonpayable",
      "type": "constructor"
    },
    {
      "anonymous": false,
      "inputs": [
        {
          "indexed": true,
          "internalType": "address",
          "name": "oldModerator",
          "type": "address"
        },
        {
          "indexed": true,
          "internalType": "address",
          "name": "newModerator",
          "type": "address"
        }
      ],
      "name": "ModeratorUpdated",
      "type": "event"
    },
    {
      "anonymous": false,
      "inputs": [
        {
          "indexed": true,
          "internalType": "address",
          "name": "from",
          "type": "address"
        },
        {
          "indexed": true,
          "internalType": "address",
          "name": "to",
          "type": "address"
        },
        {
          "indexed": false,
          "internalType": "uint256",
          "name": "amount",
          "type": "uint256"
        },
        {
          "indexed": false,
          "internalType": "uint256",
          "name": "timestamp",
          "type": "uint256"
        }
      ],
      "name": "PaymentSent",
      "type": "event"
    },
    {
      "anonymous": false,
      "inputs": [
        {
          "indexed": true,
          "internalType": "address",
          "name": "to",
          "type": "address"
        },
        {
          "indexed": false,
          "internalType": "uint256",
          "name": "amount",
          "type": "uint256"
        }
      ],
      "name": "WithdrawalMade",
      "type": "event"
    },
    {
      "inputs": [
        {
          "internalType": "address",
          "name": "",
          "type": "address"
        }
      ],
      "name": "botPayments",
      "outputs": [
        {
          "internalType": "uint256",
          "name": "",
          "type": "uint256"
        }
      ],
      "stateMutability": "view",
      "type": "function"
    },
    {
      "inputs": [],
      "name": "getBalance",
      "outputs": [
        {
          "internalType": "uint256",
          "name": "",
          "type": "uint256"
        }
      ],
      "stateMutability": "view",
      "type": "function"
    },
    {
      "inputs": [
        {
          "internalType": "address",
          "name": "bot",
          "type": "address"
        }
      ],
      "name": "getBotPayments",
      "outputs": [
        {
          "internalType": "uint256",
          "name": "",
          "type": "uint256"
        }
      ],
      "stateMutability": "view",
      "type": "function"
    },
    {
      "inputs": [],
      "name": "moderator",
      "outputs": [
        {
          "internalType": "address",
          "name": "",
          "type": "address"
        }
      ],
      "stateMutability": "view",
      "type": "function"
    },
    {
      "inputs": [],
      "name": "payModerator",
      "outputs": [
        {
          "internalType": "bool",
          "name": "",
          "type": "bool"
        }
      ],
      "stateMutability": "payable",
      "type": "function"
    },
    {
      "inputs": [],
      "name": "totalPaymentsReceived",
      "outputs": [
        {
          "internalType": "uint256",
          "name": "",
          "type": "uint256"
        }
      ],
      "stateMutability": "view",
      "type": "function"
    },
    {
      "inputs": [],
      "name": "transferToModerator",
      "outputs": [
        {
          "internalType": "bool",
          "name": "",
          "type": "bool"
        }
      ],
      "stateMutability": "nonpayable",
      "type": "function"
    },
    {
      "inputs": [
        {
          "internalType": "address",
          "name": "_newModerator",
          "type": "address"
        }
      ],
      "name": "updateModerator",
      "outputs": [
        {
          "internalType": "bool",
          "name": "",
          "type": "bool"
        }
      ],
      "stateMutability": "nonpayable",
      "type": "function"
    },
    {
      "stateMutability": "payable",
      "type": "receive"
    }
  ],
  "bytecode": "0x608060405234801561001057600080fd5b5060405161077738038061077783398101604081905261002f916100bc565b6001600160a01b0381166100975760405162461bcd60e51b815260206004820152602560248201527f426f745061796d656e743a20696e76616c6964206d6f64657261746f72206164604482015264647265737360d81b606482015260840160405180910390fd5b600080546001600160a01b0319166001600160a01b03929092169190911790556100ec565b6000602082840312156100ce57600080fd5b81516001600160a01b03811681146100e557600080fd5b9392505050565b61067c806100fb6000396000f3fe60806040526004361061007f5760003560e01c80637ec0834a1161004e5780637ec0834a146101a3578063bcef9b3f146101b8578063e91e62a2146101ce578063eb8e847d146101fb57600080fd5b80630d2c45471461011157806312065fe0146101465780632d7c1afd14610163578063387439041461016b57600080fd5b3661010c5733600090815260016020526040812080543492906100a39084906105a8565b9250508190555034600260008282546100bc91906105a8565b9091555050600054604080513481524260208201526001600160a01b039092169133917f6af891475b82ff839770dcb2e5b7c10771f7b8058868dd11aa25d9187fd14235910160405180910390a3005b600080fd5b34801561011d57600080fd5b5061013161012c3660046105cf565b610231565b60405190151581526020015b60405180910390f35b34801561015257600080fd5b50475b60405190815260200161013d565b61013161031e565b34801561017757600080fd5b5060005461018b906001600160a01b031681565b6040516001600160a01b03909116815260200161013d565b3480156101af57600080fd5b50610131610418565b3480156101c457600080fd5b5061015560025481565b3480156101da57600080fd5b506101556101e93660046105cf565b60016020526000908152604090205481565b34801561020757600080fd5b506101556102163660046105cf565b6001600160a01b031660009081526001602052604090205490565b600080546001600160a01b031633146102655760405162461bcd60e51b815260040161025c906105ff565b60405180910390fd5b6001600160a01b0382166102c95760405162461bcd60e51b815260206004820152602560248201527f426f745061796d656e743a20696e76616c6964206d6f64657261746f72206164604482015264647265737360d81b606482015260840161025c565b600080546001600160a01b038481166001600160a01b0319831681178455604051919092169283917fe30826d778da7d768eb0d53d1cce09ef9a58bde3a4ff7ea2999c64d00924dc499190a350600192915050565b600080341161038c5760405162461bcd60e51b815260206004820152603460248201527f426f745061796d656e743a207061796d656e7420616d6f756e74206d7573742060448201527362652067726561746572207468616e207a65726f60601b606482015260840161025c565b33600090815260016020526040812080543492906103ab9084906105a8565b9250508190555034600260008282546103c491906105a8565b9091555050600054604080513481524260208201526001600160a01b039092169133917f6af891475b82ff839770dcb2e5b7c10771f7b8058868dd11aa25d9187fd14235910160405180910390a350600190565b600080546001600160a01b031633146104435760405162461bcd60e51b815260040161025c906105ff565b47806104a95760405162461bcd60e51b815260206004820152602f60248201527f426f745061796d656e743a20636f6e747261637420686173206e6f2062616c6160448201526e3731b2903a37903a3930b739b332b960891b606482015260840161025c565b600080546040516001600160a01b039091169083908381818185875af1925050503d80600081146104f6576040519150601f19603f3d011682016040523d82523d6000602084013e6104fb565b606091505b505090508061055d5760405162461bcd60e51b815260206004820152602860248201527f426f745061796d656e743a207472616e7366657220746f206d6f64657261746f6044820152671c8819985a5b195960c21b606482015260840161025c565b6000546040518381526001600160a01b03909116907fbc158bb64f05d6383aea69bbb0b20c1bbf4b7a18f63359c5649b7c39e29d38849060200160405180910390a260019250505090565b808201808211156105c957634e487b7160e01b600052601160045260246000fd5b92915050565b6000602082840312156105e157600080fd5b81356001600160a01b03811681146105f857600080fd5b9392505050565b60208082526027908201527f426f745061796d656e743a2063616c6c6572206973206e6f7420746865206d6f6040820152663232b930ba37b960c91b60608201526080019056fea2646970667358221220b0a05cec41c3b171302230a16de8826fef74b60ec1b58708156814b8387cb4fa64736f6c63430008140033",
  "linkReferences": {},
  "deployedLinkReferences": {}
}