{
  "_format": "hh-sol-artifact-1",
  "contractName": "IPLPlayerCard",
  "sourceName": "contracts/IPLPlayerCard.sol",
  "abi": [
    {
      "inputs": [],
      "stateMutability": "nonpayable",
      "type": "constructor"
    },
    {
      "inputs": [
        {
          "internalType": "address",
          "name": "sender",
          "type": "address"
        },
        {
          "internalType": "uint256",
          "name": "tokenId",
          "type": "uint256"
        },
        {
          "internalType": "address",
          "name": "owner",
          "type": "address"
        }
      ],
      "name": "ERC721IncorrectOwner",
      "type": "error"
    },
    {
      "inputs": [
        {
          "internalType": "address",
          "name": "operator",
          "type": "address"
        },
        {
          "internalType": "uint256",
          "name": "tokenId",
          "type": "uint256"
        }
      ],
      "name": "ERC721InsufficientApproval",
      "type": "error"
    },
    {
      "inputs": [
        {
          "internalType": "address",
          "name": "approver",
          "type": "address"
        }
      ],
      "name": "ERC721InvalidApprover",
      "type": "error"
    },
    {
      "inputs": [
        {
          "internalType": "address",
          "name": "operator",
          "type": "address"
        }
      ],
      "name": "ERC721InvalidOperator",
      "type": "error"
    },
    {
      "inputs": [
        {
          "internalType": "address",
          "name": "owner",
          "type": "address"
        }
      ],
      "name": "ERC721InvalidOwner",
      "type": "error"
    },
    {
      "inputs": [
        {
          "internalType": "address",
          "name": "receiver",
          "type": "address"
        }
      ],
      "name": "ERC721InvalidReceiver",
      "type": "error"
    },
    {
      "inputs": [
        {
          "internalType": "address",
          "name": "sender",
          "type": "address"
        }
      ],
      "name": "ERC721InvalidSender",
      "type": "error"
    },
    {
      "inputs": [
        {
          "internalType": "uint256",
          "name": "tokenId",
          "type": "uint256"
        }
      ],
      "name": "ERC721NonexistentToken",
      "type": "error"
    },
    {
      "inputs": [
        {
          "internalType": "address",
          "name": "owner",
          "type": "address"
        }
      ],
      "name": "OwnableInvalidOwner",
      "type": "error"
    },
    {
      "inputs": [
        {
          "internalType": "address",
          "name": "account",
          "type": "address"
        }
      ],
      "name": "OwnableUnauthorizedAccount",
      "type": "error"
    },
    {
      "anonymous": false,
      "inputs": [
        {
          "indexed": true,
          "internalType": "address",
          "name": "owner",
          "type": "address"
        },
        {
          "indexed": true,
          "internalType": "address",
          "name": "approved",
          "type": "address"
        },
        {
          "indexed": true,
          "internalType": "uint256",
          "name": "tokenId",
          "type": "uint256"
        }
      ],
      "name": "Approval",
      "type": "event"
    },
    {
      "anonymous": false,
      "inputs": [
        {
          "indexed": true,
          "internalType": "address",
          "name": "owner",
          "type": "address"
        },
        {
          "indexed": true,
          "internalType": "address",
          "name": "operator",
          "type": "address"
        },
        {
          "indexed": false,
          "internalType": "bool",
          "name": "approved",
          "type": "bool"
        }
      ],
      "name": "ApprovalForAll",
      "type": "event"
    },
    {
      "anonymous": false,
      "inputs": [
        {
          "indexed": true,
          "internalType": "address",
          "name": "previousOwner",
          "type": "address"
        },
        {
          "indexed": true,
          "internalType": "address",
          "name": "newOwner",
          "type": "address"
        }
      ],
      "name": "OwnershipTransferred",
      "type": "event"
    },
    {
      "anonymous": false,
      "inputs": [
        {
          "indexed": true,
          "internalType": "uint256",
          "name": "tokenId",
          "type": "uint256"
        },
        {
          "indexed": false,
          "internalType": "string",
          "name": "name",
          "type": "string"
        },
        {
          "indexed": false,
          "internalType": "address",
          "name": "owner",
          "type": "address"
        }
      ],
      "name": "PlayerCardMinted",
      "type": "event"
    },
    {
      "anonymous": false,
      "inputs": [
        {
          "indexed": true,
          "internalType": "address",
          "name": "from",
          "type": "address"
        },
        {
          "indexed": true,
          "internalType": "address",
          "name": "to",
          "type": "address"
        },
        {
          "indexed": true,
          "internalType": "uint256",
          "name": "tokenId",
          "type": "uint256"
        }
      ],
      "name": "Transfer",
      "type": "event"
    },
    {
      "inputs": [
        {
          "internalType": "address",
          "name": "to",
          "type": "address"
        },
        {
          "internalType": "uint256",
          "name": "tokenId",
          "type": "uint256"
        }
      ],
      "name": "approve",
      "outputs": [],
      "stateMutability": "nonpayable",
      "type": "function"
    },
    {
      "inputs": [
        {
          "internalType": "address",
          "name": "owner",
          "type": "address"
        }
      ],
      "name": "balanceOf",
      "outputs": [
        {
          "internalType": "uint256",
          "name": "",
          "type": "uint256"
        }
      ],
      "stateMutability": "view",
      "type": "function"
    },
    {
      "inputs": [
        {
          "internalType": "address",
          "name": "to",
          "type": "address"
        },
        {
          "internalType": "string[]",
          "name": "tokenURIs",
          "type": "string[]"
        }
      ],
      "name": "batchMintPlayerCards",
      "outputs": [
        {
          "internalType": "uint256[]",
          "name": "",
          "type": "uint256[]"
        }
      ],
      "stateMutability": "nonpayable",
      "type": "function"
    },
    {
      "inputs": [
        {
          "internalType": "uint256",
          "name": "tokenId",
          "type": "uint256"
        }
      ],
      "name": "getApproved",
      "outputs": [
        {
          "internalType": "address",
          "name": "",
          "type": "address"
        }
      ],
      "stateMutability": "view",
      "type": "function"
    },
    {
      "inputs": [
        {
          "internalType": "uint256",
          "name": "tokenId",
          "type": "uint256"
        }
      ],
      "name": "getPlayerInfo",
      "outputs": [
        {
          "components": [
            {
              "internalType": "string",
              "name": "name",
              "type": "string"
            },
            {
              "internalType": "string",
              "name": "description",
              "type": "string"
            },
            {
              "internalType": "string",
              "name": "role",
              "type": "string"
            },
            {
              "internalType": "string",
              "name": "nationality",
              "type": "string"
            },
            {
              "internalType": "uint16",
              "name": "age",
              "type": "uint16"
            },
            {
              "internalType": "string",
              "name": "previousTeam",
              "type": "string"
            },
            {
              "internalType": "string",
              "name": "rarity",
              "type": "string"
            },
            {
              "internalType": "uint16",
              "name": "matches",
              "type": "uint16"
            },
            {
              "internalType": "uint32",
              "name": "runs",
              "type": "uint32"
            },
            {
              "internalType": "uint16",
              "name": "battingAverage",
              "type": "uint16"
            },
            {
              "internalType": "uint16",
              "name": "strikeRate",
              "type": "uint16"
            },
            {
              "internalType": "string",
              "name": "specialty",
              "type": "string"
            },
            {
              "internalType": "string",
              "name": "externalUrl",
              "type": "string"
            }
          ],
          "internalType": "struct IPLPlayerCard.PlayerInfo",
          "name": "",
          "type": "tuple"
        }
      ],
      "stateMutability": "view",
      "type": "function"
    },
    {
      "inputs": [
        {
          "internalType": "address",
          "name": "owner",
          "type": "address"
        },
        {
          "internalType": "address",
          "name": "operator",
          "type": "address"
        }
      ],
      "name": "isApprovedForAll",
      "outputs": [
        {
          "internalType": "bool",
          "name": "",
          "type": "bool"
        }
      ],
      "stateMutability": "view",
      "type": "function"
    },
    {
      "inputs": [
        {
          "internalType": "address",
          "name": "to",
          "type": "address"
        },
        {
          "internalType": "string",
          "name": "tokenURI",
          "type": "string"
        },
        {
          "components": [
            {
              "internalType": "string",
              "name": "name",
              "type": "string"
            },
            {
              "internalType": "string",
              "name": "description",
              "type": "string"
            },
            {
              "internalType": "string",
              "name": "role",
              "type": "string"
            },
            {
              "internalType": "string",
              "name": "nationality",
              "type": "string"
            },
            {
              "internalType": "uint16",
              "name": "age",
              "type": "uint16"
            },
            {
              "internalType": "string",
              "name": "previousTeam",
              "type": "string"
            },
            {
              "internalType": "string",
              "name": "rarity",
              "type": "string"
            },
            {
              "internalType": "uint16",
              "name": "matches",
              "type": "uint16"
            },
            {
              "internalType": "uint32",
              "name": "runs",
              "type": "uint32"
            },
            {
              "internalType": "uint16",
              "name": "battingAverage",
              "type": "uint16"
            },
            {
              "internalType": "uint16",
              "name": "strikeRate",
              "type": "uint16"
            },
            {
              "internalType": "string",
              "name": "specialty",
              "type": "string"
            },
            {
              "internalType": "string",
              "name": "externalUrl",
              "type": "string"
            }
          ],
          "internalType": "struct IPLPlayerCard.PlayerInfo",
          "name": "playerData",
          "type": "tuple"
        }
      ],
      "name": "mintPlayerCard",
      "outputs": [
        {
          "internalType": "uint256",
          "name": "",
          "type": "uint256"
        }
      ],
      "stateMutability": "nonpayable",
      "type": "function"
    },
    {
      "inputs": [],
      "name": "name",
      "outputs": [
        {
          "internalType": "string",
          "name": "",
          "type": "string"
        }
      ],
      "stateMutability": "view",
      "type": "function"
    },
    {
      "inputs": [],
      "name": "owner",
      "outputs": [
        {
          "internalType": "address",
          "name": "",
          "type": "address"
        }
      ],
      "stateMutability": "view",
      "type": "function"
    },
    {
      "inputs": [
        {
          "internalType": "uint256",
          "name": "tokenId",
          "type": "uint256"
        }
      ],
      "name": "ownerOf",
      "outputs": [
        {
          "internalType": "address",
          "name": "",
          "type": "address"
        }
      ],
      "stateMutability": "view",
      "type": "function"
    },
    {
      "inputs": [],
      "name": "renounceOwnership",
      "outputs": [],
      "stateMutability": "nonpayable",
      "type": "function"
    },
    {
      "inputs": [
        {
          "internalType": "address",
          "name": "from",
          "type": "address"
        },
        {
          "internalType": "address",
          "name": "to",
          "type": "address"
        },
        {
          "internalType": "uint256",
          "name": "tokenId",
          "type": "uint256"
        }
      ],
      "name": "safeTransferFrom",
      "outputs": [],
      "stateMutability": "nonpayable",
      "type": "function"
    },
    {
      "inputs": [
        {
          "internalType": "address",
          "name": "from",
          "type": "address"
        },
        {
          "internalType": "address",
          "name": "to",
          "type": "address"
        },
        {
          "internalType": "uint256",
          "name": "tokenId",
          "type": "uint256"
        },
        {
          "internalType": "bytes",
          "name": "data",
          "type": "bytes"
        }
      ],
      "name": "safeTransferFrom",
      "outputs": [],
      "stateMutability": "nonpayable",
      "type": "function"
    },
    {
      "inputs": [
        {
          "internalType": "address",
          "name": "operator",
          "type": "address"
        },
        {
          "internalType": "bool",
          "name": "approved",
          "type": "bool"
        }
      ],
      "name": "setApprovalForAll",
      "outputs": [],
      "stateMutability": "nonpayable",
      "type": "function"
    },
    {
      "inputs": [
        {
          "internalType": "bytes4",
          "name": "interfaceId",
          "type": "bytes4"
        }
      ],
      "name": "supportsInterface",
      "outputs": [
        {
          "internalType": "bool",
          "name": "",
          "type": "bool"
        }
      ],
      "stateMutability": "view",
      "type": "function"
    },
    {
      "inputs": [],
      "name": "symbol",
      "outputs": [
        {
          "internalType": "string",
          "name": "",
          "type": "string"
        }
      ],
      "stateMutability": "view",
      "type": "function"
    },
    {
      "inputs": [
        {
          "internalType": "uint256",
          "name": "tokenId",
          "type": "uint256"
        }
      ],
      "name": "tokenURI",
      "outputs": [
        {
          "internalType": "string",
          "name": "",
          "type": "string"
        }
      ],
      "stateMutability": "view",
      "type": "function"
    },
    {
      "inputs": [
        {
          "internalType": "address",
          "name": "from",
          "type": "address"
        },
        {
          "internalType": "address",
          "name": "to",
          "type": "address"
        },
        {
          "internalType": "uint256",
          "name": "tokenId",
          "type": "uint256"
        }
      ],
      "name": "transferFrom",
      "outputs": [],
      "stateMutability": "nonpayable",
      "type": "function"
    },
    {
      "inputs": [
        {
          "internalType": "address",
          "name": "newOwner",
          "type": "address"
        }
      ],
      "name": "transferOwnership",
      "outputs": [],
      "stateMutability": "nonpayable",
      "type": "function"
    }
  ],
  "bytecode": "0x60806040523480156200001157600080fd5b50336040518060400160405280600f81526020016e12541308141b185e595c8810d85c99608a1b8152506040518060400160405280600581526020016449504c504360d81b81525081600090816200006a9190620001c3565b506001620000798282620001c3565b5050506001600160a01b038116620000ab57604051631e4fbdf760e01b81526000600482015260240160405180910390fd5b620000b681620000cc565b50600680546001600160a01b031690556200028f565b600680546001600160a01b038381166001600160a01b0319831681179093556040519116919082907f8be0079c531659141344cd1fd0a4f28419497f9722a3daafe3b4186f6b6457e090600090a35050565b634e487b7160e01b600052604160045260246000fd5b600181811c908216806200014957607f821691505b6020821081036200016a57634e487b7160e01b600052602260045260246000fd5b50919050565b601f821115620001be57600081815260208120601f850160051c81016020861015620001995750805b601f850160051c820191505b81811015620001ba57828155600101620001a5565b5050505b505050565b81516001600160401b03811115620001df57620001df6200011e565b620001f781620001f0845462000134565b8462000170565b602080601f8311600181146200022f5760008415620002165750858301515b600019600386901b1c1916600185901b178555620001ba565b600085815260208120601f198616915b8281101562000260578886015182559484019460019091019084016200023f565b50858210156200027f5787850151600019600388901b60f8161c191681555b5050505050600190811b01905550565b61204e806200029f6000396000f3fe608060405234801561001057600080fd5b50600436106101215760003560e01c8063715018a6116100ad578063ba613baa11610071578063ba613baa14610264578063c87b56dd14610277578063e985e9c51461028a578063ea17532e1461029d578063f2fde38b146102bd57600080fd5b8063715018a61461021d5780638da5cb5b1461022557806395d89b4114610236578063a22cb4651461023e578063b88d4fde1461025157600080fd5b806323b872dd116100f457806323b872dd146101a35780633430d84d146101b657806342842e0e146101d65780636352211e146101e957806370a08231146101fc57600080fd5b806301ffc9a71461012657806306fdde031461014e578063081812fc14610163578063095ea7b31461018e575b600080fd5b610139610134366004611567565b6102d0565b60405190151581526020015b60405180910390f35b610156610322565b60405161014591906115db565b6101766101713660046115ee565b6103b4565b6040516001600160a01b039091168152602001610145565b6101a161019c366004611623565b6103dd565b005b6101a16101b136600461164d565b6103ec565b6101c96101c4366004611689565b61047c565b604051610145919061170f565b6101a16101e436600461164d565b6105d0565b6101766101f73660046115ee565b6105f0565b61020f61020a366004611747565b6105fb565b604051908152602001610145565b6101a1610643565b6006546001600160a01b0316610176565b610156610657565b6101a161024c366004611762565b610666565b6101a161025f3660046117b4565b610671565b61020f610272366004611890565b610689565b6101566102853660046115ee565b610785565b61013961029836600461193e565b61090d565b6102b06102ab3660046115ee565b61093b565b6040516101459190611971565b6101a16102cb366004611747565b610f3e565b60006001600160e01b031982166380ac58cd60e01b148061030157506001600160e01b03198216635b5e139f60e01b145b8061031c57506301ffc9a760e01b6001600160e01b03198316145b92915050565b60606000805461033190611ade565b80601f016020809104026020016040519081016040528092919081815260200182805461035d90611ade565b80156103aa5780601f1061037f576101008083540402835291602001916103aa565b820191906000526020600020905b81548152906001019060200180831161038d57829003601f168201915b5050505050905090565b60006103bf82610f7c565b506000828152600460205260409020546001600160a01b031661031c565b6103e8828233610fb5565b5050565b6001600160a01b03821661041b57604051633250574960e11b8152600060048201526024015b60405180910390fd5b6000610428838333610fc2565b9050836001600160a01b0316816001600160a01b031614610476576040516364283d7b60e01b81526001600160a01b0380861660048301526024820184905282166044820152606401610412565b50505050565b60606104866110bb565b8160008167ffffffffffffffff8111156104a2576104a261179e565b6040519080825280602002602001820160405280156104cb578160200160208202803683370190505b5090506000805b838110156105c457600660149054906101000a90046001600160601b03166001600160601b031691508183828151811061050e5761050e611b18565b60200260200101818152505061052488836110e8565b6105868288888481811061053a5761053a611b18565b905060200281019061054c9190611b2e565b8080601f01602080910402602001604051908101604052809392919081815260200183838082843760009201919091525061114d92505050565b6006805460016001600160601b03600160a01b80840482169290920116026001600160a01b03909116179055806105bc81611b7c565b9150506104d2565b50909695505050505050565b6105eb83838360405180602001604052806000815250610671565b505050565b600061031c82610f7c565b60006001600160a01b038216610627576040516322718ad960e21b815260006004820152602401610412565b506001600160a01b031660009081526003602052604090205490565b61064b6110bb565b6106556000611165565b565b60606001805461033190611ade565b6103e83383836111b7565b61067c8484846103ec565b6104763385858585611256565b60006106936110bb565b600654600160a01b90046001600160601b03166106b086826110e8565b6106f08186868080601f01602080910402602001604051908101604052809392919081815260200183838082843760009201919091525061114d92505050565b6000818152600860205260409020839061070a8282611cd3565b50506006805460016001600160601b03600160a01b80840482169290920116026001600160a01b03909116179055807fc4d89eb5986587083cf8c22e7279971a761f8fa467359639f565c9e1009e9ce16107648580611b2e565b8960405161077493929190611e98565b60405180910390a295945050505050565b6000818152600260205260409020546060906001600160a01b03166108035760405162461bcd60e51b815260206004820152602e60248201527f49504c506c61796572436172643a2055524920717565727920666f72206e6f6e60448201526d32bc34b9ba32b73a103a37b5b2b760911b6064820152608401610412565b6000828152600760205260408120805461081c90611ade565b80601f016020809104026020016040519081016040528092919081815260200182805461084890611ade565b80156108955780601f1061086a57610100808354040283529160200191610895565b820191906000526020600020905b81548152906001019060200180831161087857829003601f168201915b5050505050905060006108c2604080518082019091526007815266697066733a2f2f60c81b602082015290565b9050600081511180156108d6575060008251115b156109065780826040516020016108ee929190611ed9565b60405160208183030381529060405292505050919050565b5092915050565b6001600160a01b03918216600090815260056020908152604080832093909416825291909152205460ff1690565b6109bc604051806101a0016040528060608152602001606081526020016060815260200160608152602001600061ffff1681526020016060815260200160608152602001600061ffff168152602001600063ffffffff168152602001600061ffff168152602001600061ffff16815260200160608152602001606081525090565b6000828152600260205260409020546001600160a01b0316610a335760405162461bcd60e51b815260206004820152602a60248201527f49504c506c61796572436172643a20517565727920666f72206e6f6e657869736044820152693a32b73a103a37b5b2b760b11b6064820152608401610412565b6000828152600860205260409081902081516101a08101909252805482908290610a5c90611ade565b80601f0160208091040260200160405190810160405280929190818152602001828054610a8890611ade565b8015610ad55780601f10610aaa57610100808354040283529160200191610ad5565b820191906000526020600020905b815481529060010190602001808311610ab857829003601f168201915b50505050508152602001600182018054610aee90611ade565b80601f0160208091040260200160405190810160405280929190818152602001828054610b1a90611ade565b8015610b675780601f10610b3c57610100808354040283529160200191610b67565b820191906000526020600020905b815481529060010190602001808311610b4a57829003601f168201915b50505050508152602001600282018054610b8090611ade565b80601f0160208091040260200160405190810160405280929190818152602001828054610bac90611ade565b8015610bf95780601f10610bce57610100808354040283529160200191610bf9565b820191906000526020600020905b815481529060010190602001808311610bdc57829003601f168201915b50505050508152602001600382018054610c1290611ade565b80601f0160208091040260200160405190810160405280929190818152602001828054610c3e90611ade565b8015610c8b5780601f10610c6057610100808354040283529160200191610c8b565b820191906000526020600020905b815481529060010190602001808311610c6e57829003601f168201915b5050509183525050600482015461ffff166020820152600582018054604090920191610cb690611ade565b80601f0160208091040260200160405190810160405280929190818152602001828054610ce290611ade565b8015610d2f5780601f10610d0457610100808354040283529160200191610d2f565b820191906000526020600020905b815481529060010190602001808311610d1257829003601f168201915b50505050508152602001600682018054610d4890611ade565b80601f0160208091040260200160405190810160405280929190818152602001828054610d7490611ade565b8015610dc15780601f10610d9657610100808354040283529160200191610dc1565b820191906000526020600020905b815481529060010190602001808311610da457829003601f168201915b5050509183525050600782015461ffff808216602084015263ffffffff62010000830416604084015266010000000000008204811660608401526801000000000000000090910416608082015260088201805460a090920191610e2390611ade565b80601f0160208091040260200160405190810160405280929190818152602001828054610e4f90611ade565b8015610e9c5780601f10610e7157610100808354040283529160200191610e9c565b820191906000526020600020905b815481529060010190602001808311610e7f57829003601f168201915b50505050508152602001600982018054610eb590611ade565b80601f0160208091040260200160405190810160405280929190818152602001828054610ee190611ade565b8015610f2e5780601f10610f0357610100808354040283529160200191610f2e565b820191906000526020600020905b815481529060010190602001808311610f1157829003601f168201915b5050505050815250509050919050565b610f466110bb565b6001600160a01b038116610f7057604051631e4fbdf760e01b815260006004820152602401610412565b610f7981611165565b50565b6000818152600260205260408120546001600160a01b03168061031c57604051637e27328960e01b815260048101849052602401610412565b6105eb8383836001611381565b6000828152600260205260408120546001600160a01b0390811690831615610fef57610fef818486611487565b6001600160a01b0381161561102d5761100c600085600080611381565b6001600160a01b038116600090815260036020526040902080546000190190555b6001600160a01b0385161561105c576001600160a01b0385166000908152600360205260409020805460010190555b60008481526002602052604080822080546001600160a01b0319166001600160a01b0389811691821790925591518793918516917fddf252ad1be2c89b69c2b068fc378daa952ba7f163c4a11628f55a4df523b3ef91a4949350505050565b6006546001600160a01b031633146106555760405163118cdaa760e01b8152336004820152602401610412565b6001600160a01b03821661111257604051633250574960e11b815260006004820152602401610412565b600061112083836000610fc2565b90506001600160a01b038116156105eb576040516339e3563760e11b815260006004820152602401610412565b60008281526007602052604090206105eb8282611f08565b600680546001600160a01b038381166001600160a01b0319831681179093556040519116919082907f8be0079c531659141344cd1fd0a4f28419497f9722a3daafe3b4186f6b6457e090600090a35050565b6001600160a01b0382166111e957604051630b61174360e31b81526001600160a01b0383166004820152602401610412565b6001600160a01b03838116600081815260056020908152604080832094871680845294825291829020805460ff191686151590811790915591519182527f17307eab39ab6107e8899845ad3d59bd9653f200f220920489ca2b5937696c31910160405180910390a3505050565b6001600160a01b0383163b1561137a57604051630a85bd0160e11b81526001600160a01b0384169063150b7a0290611298908890889087908790600401611fc8565b6020604051808303816000875af19250505080156112d3575060408051601f3d908101601f191682019092526112d091810190611ffb565b60015b61133c573d808015611301576040519150601f19603f3d011682016040523d82523d6000602084013e611306565b606091505b50805160000361133457604051633250574960e11b81526001600160a01b0385166004820152602401610412565b805181602001fd5b6001600160e01b03198116630a85bd0160e11b1461137857604051633250574960e11b81526001600160a01b0385166004820152602401610412565b505b5050505050565b808061139557506001600160a01b03821615155b156114575760006113a584610f7c565b90506001600160a01b038316158015906113d15750826001600160a01b0316816001600160a01b031614155b80156113e457506113e2818461090d565b155b1561140d5760405163a9fbf51f60e01b81526001600160a01b0384166004820152602401610412565b81156114555783856001600160a01b0316826001600160a01b03167f8c5be1e5ebec7d5bd14f71427d1e84f3dd0314c0f7b2291e5b200ac8c7c3b92560405160405180910390a45b505b5050600090815260046020526040902080546001600160a01b0319166001600160a01b0392909216919091179055565b6114928383836114eb565b6105eb576001600160a01b0383166114c057604051637e27328960e01b815260048101829052602401610412565b60405163177e802f60e01b81526001600160a01b038316600482015260248101829052604401610412565b60006001600160a01b038316158015906115495750826001600160a01b0316846001600160a01b031614806115255750611525848461090d565b8061154957506000828152600460205260409020546001600160a01b038481169116145b949350505050565b6001600160e01b031981168114610f7957600080fd5b60006020828403121561157957600080fd5b813561158481611551565b9392505050565b60005b838110156115a657818101518382015260200161158e565b50506000910152565b600081518084526115c781602086016020860161158b565b601f01601f19169290920160200192915050565b60208152600061158460208301846115af565b60006020828403121561160057600080fd5b5035919050565b80356001600160a01b038116811461161e57600080fd5b919050565b6000806040838503121561163657600080fd5b61163f83611607565b946020939093013593505050565b60008060006060848603121561166257600080fd5b61166b84611607565b925061167960208501611607565b9150604084013590509250925092565b60008060006040848603121561169e57600080fd5b6116a784611607565b9250602084013567ffffffffffffffff808211156116c457600080fd5b818601915086601f8301126116d857600080fd5b8135818111156116e757600080fd5b8760208260051b85010111156116fc57600080fd5b6020830194508093505050509250925092565b6020808252825182820181905260009190848201906040850190845b818110156105c45783518352928401929184019160010161172b565b60006020828403121561175957600080fd5b61158482611607565b6000806040838503121561177557600080fd5b61177e83611607565b91506020830135801515811461179357600080fd5b809150509250929050565b634e487b7160e01b600052604160045260246000fd5b600080600080608085870312156117ca57600080fd5b6117d385611607565b93506117e160208601611607565b925060408501359150606085013567ffffffffffffffff8082111561180557600080fd5b818701915087601f83011261181957600080fd5b81358181111561182b5761182b61179e565b604051601f8201601f19908116603f011681019083821181831017156118535761185361179e565b816040528281528a602084870101111561186c57600080fd5b82602086016020830137600060208483010152809550505050505092959194509250565b600080600080606085870312156118a657600080fd5b6118af85611607565b9350602085013567ffffffffffffffff808211156118cc57600080fd5b818701915087601f8301126118e057600080fd5b8135818111156118ef57600080fd5b88602082850101111561190157600080fd5b60208301955080945050604087013591508082111561191f57600080fd5b5085016101a0818803121561193357600080fd5b939692955090935050565b6000806040838503121561195157600080fd5b61195a83611607565b915061196860208401611607565b90509250929050565b60208152600082516101a08060208501526119906101c08501836115af565b91506020850151601f19808685030160408701526119ae84836115af565b935060408701519150808685030160608701526119cb84836115af565b935060608701519150808685030160808701526119e884836115af565b935060808701519150611a0160a087018361ffff169052565b60a08701519150808685030160c0870152611a1c84836115af565b935060c08701519150808685030160e0870152611a3984836115af565b935060e08701519150610100611a548188018461ffff169052565b8701519150610120611a6d8782018463ffffffff169052565b8701519150610140611a848782018461ffff169052565b8701519150610160611a9b8782018461ffff169052565b80880151925050610180818786030181880152611ab885846115af565b908801518782039092018488015293509050611ad483826115af565b9695505050505050565b600181811c90821680611af257607f821691505b602082108103611b1257634e487b7160e01b600052602260045260246000fd5b50919050565b634e487b7160e01b600052603260045260246000fd5b6000808335601e19843603018112611b4557600080fd5b83018035915067ffffffffffffffff821115611b6057600080fd5b602001915036819003821315611b7557600080fd5b9250929050565b600060018201611b9c57634e487b7160e01b600052601160045260246000fd5b5060010190565b601f8211156105eb57600081815260208120601f850160051c81016020861015611bca5750805b601f850160051c820191505b8181101561137857828155600101611bd6565b67ffffffffffffffff831115611c0157611c0161179e565b611c1583611c0f8354611ade565b83611ba3565b6000601f841160018114611c495760008515611c315750838201355b600019600387901b1c1916600186901b17835561137a565b600083815260209020601f19861690835b82811015611c7a5786850135825560209485019460019092019101611c5a565b5086821015611c975760001960f88860031b161c19848701351681555b505060018560011b0183555050505050565b6000813561ffff8116811461031c57600080fd5b6000813563ffffffff8116811461031c57600080fd5b611cdd8283611b2e565b611ce8818385611be9565b5050611cf76020830183611b2e565b611d05818360018601611be9565b5050611d146040830183611b2e565b611d22818360028601611be9565b5050611d316060830183611b2e565b611d3f818360038601611be9565b5050611d67611d5060808401611ca9565b6004830161ffff821661ffff198254161781555050565b611d7460a0830183611b2e565b611d82818360058601611be9565b5050611d9160c0830183611b2e565b611d9f818360068601611be9565b505060078101611dc7611db460e08501611ca9565b825461ffff191661ffff91909116178255565b611df5611dd76101008501611cbd565b825465ffffffff0000191660109190911b65ffffffff000016178255565b611e27611e056101208501611ca9565b825467ffff000000000000191660309190911b67ffff00000000000016178255565b611e5d611e376101408501611ca9565b825469ffff0000000000000000191660409190911b69ffff000000000000000016178255565b50611e6c610160830183611b2e565b611e7a818360088601611be9565b5050611e8a610180830183611b2e565b610476818360098601611be9565b6040815282604082015282846060830137600060608483018101919091526001600160a01b03929092166020820152601f909201601f191690910101919050565b60008351611eeb81846020880161158b565b835190830190611eff81836020880161158b565b01949350505050565b815167ffffffffffffffff811115611f2257611f2261179e565b611f3681611f308454611ade565b84611ba3565b602080601f831160018114611f6b5760008415611f535750858301515b600019600386901b1c1916600185901b178555611378565b600085815260208120601f198616915b82811015611f9a57888601518255948401946001909101908401611f7b565b5085821015611fb85787850151600019600388901b60f8161c191681555b5050505050600190811b01905550565b6001600160a01b0385811682528416602082015260408101839052608060608201819052600090611ad4908301846115af565b60006020828403121561200d57600080fd5b81516115848161155156fea264697066735822122004ecf376edc7c0d3c44b4d29c399d19e92f1284adcc67095d85dea081ab9484064736f6c63430008140033",
  "linkReferences": {},
  "deployedLinkReferences": {}
}